{
  "_format": "hh-sol-artifact-1",
  "contractName": "Crowdfunding",
  "sourceName": "contracts/Crowdfunding.sol",
  "abi": [
    {
      "anonymous": false,
      "inputs": [
        {
          "indexed": false,
          "internalType": "uint256",
          "name": "campaignId",
          "type": "uint256"
        },
        {
          "indexed": false,
          "internalType": "string",
          "name": "title",
          "type": "string"
        },
        {
          "indexed": false,
          "internalType": "uint256",
          "name": "goal",
          "type": "uint256"
        },
        {
          "indexed": false,
          "internalType": "uint256",
          "name": "createdAt",
          "type": "uint256"
        }
      ],
      "name": "CampaignCreated",
      "type": "event"
    },
    {
      "anonymous": false,
      "inputs": [
        {
          "indexed": false,
          "internalType": "uint256",
          "name": "campaignId",
          "type": "uint256"
        },
        {
          "indexed": false,
          "internalType": "address",
          "name": "funder",
          "type": "address"
        },
        {
          "indexed": false,
          "internalType": "uint256",
          "name": "amount",
          "type": "uint256"
        }
      ],
      "name": "Funded",
      "type": "event"
    },
    {
      "anonymous": false,
      "inputs": [
        {
          "indexed": false,
          "internalType": "uint256",
          "name": "campaignId",
          "type": "uint256"
        },
        {
          "indexed": false,
          "internalType": "address",
          "name": "owner",
          "type": "address"
        },
        {
          "indexed": false,
          "internalType": "uint256",
          "name": "amount",
          "type": "uint256"
        }
      ],
      "name": "Withdrawn",
      "type": "event"
    },
    {
      "inputs": [
        {
          "internalType": "uint256",
          "name": "",
          "type": "uint256"
        }
      ],
      "name": "campaigns",
      "outputs": [
        {
          "internalType": "address",
          "name": "owner",
          "type": "address"
        },
        {
          "internalType": "string",
          "name": "title",
          "type": "string"
        },
        {
          "internalType": "string",
          "name": "description",
          "type": "string"
        },
        {
          "internalType": "uint256",
          "name": "goal",
          "type": "uint256"
        },
        {
          "internalType": "uint256",
          "name": "fundsRaised",
          "type": "uint256"
        },
        {
          "internalType": "bool",
          "name": "completed",
          "type": "bool"
        },
        {
          "internalType": "string",
          "name": "imageUrl",
          "type": "string"
        },
        {
          "internalType": "uint256",
          "name": "createdAt",
          "type": "uint256"
        }
      ],
      "stateMutability": "view",
      "type": "function"
    },
    {
      "inputs": [
        {
          "internalType": "string",
          "name": "_title",
          "type": "string"
        },
        {
          "internalType": "string",
          "name": "_description",
          "type": "string"
        },
        {
          "internalType": "uint256",
          "name": "_goal",
          "type": "uint256"
        },
        {
          "internalType": "string",
          "name": "_imageUrl",
          "type": "string"
        }
      ],
      "name": "createCampaign",
      "outputs": [],
      "stateMutability": "nonpayable",
      "type": "function"
    },
    {
      "inputs": [
        {
          "internalType": "uint256",
          "name": "_campaignId",
          "type": "uint256"
        }
      ],
      "name": "fundCampaign",
      "outputs": [],
      "stateMutability": "payable",
      "type": "function"
    },
    {
      "inputs": [],
      "name": "getAllCampaigns",
      "outputs": [
        {
          "components": [
            {
              "internalType": "address",
              "name": "owner",
              "type": "address"
            },
            {
              "internalType": "string",
              "name": "title",
              "type": "string"
            },
            {
              "internalType": "string",
              "name": "description",
              "type": "string"
            },
            {
              "internalType": "uint256",
              "name": "goal",
              "type": "uint256"
            },
            {
              "internalType": "uint256",
              "name": "fundsRaised",
              "type": "uint256"
            },
            {
              "internalType": "bool",
              "name": "completed",
              "type": "bool"
            },
            {
              "internalType": "string",
              "name": "imageUrl",
              "type": "string"
            },
            {
              "internalType": "uint256",
              "name": "createdAt",
              "type": "uint256"
            }
          ],
          "internalType": "struct Crowdfunding.Campaign[]",
          "name": "",
          "type": "tuple[]"
        }
      ],
      "stateMutability": "view",
      "type": "function"
    },
    {
      "inputs": [
        {
          "internalType": "uint256",
          "name": "_campaignId",
          "type": "uint256"
        }
      ],
      "name": "getTransactionLog",
      "outputs": [
        {
          "components": [
            {
              "internalType": "address",
              "name": "sender",
              "type": "address"
            },
            {
              "internalType": "uint256",
              "name": "amount",
              "type": "uint256"
            },
            {
              "internalType": "enum Crowdfunding.TxType",
              "name": "txType",
              "type": "uint8"
            },
            {
              "internalType": "uint256",
              "name": "timestamp",
              "type": "uint256"
            }
          ],
          "internalType": "struct Crowdfunding.Transaction[]",
          "name": "",
          "type": "tuple[]"
        }
      ],
      "stateMutability": "view",
      "type": "function"
    },
    {
      "inputs": [
        {
          "internalType": "uint256",
          "name": "",
          "type": "uint256"
        },
        {
          "internalType": "uint256",
          "name": "",
          "type": "uint256"
        }
      ],
      "name": "transactionLogs",
      "outputs": [
        {
          "internalType": "address",
          "name": "sender",
          "type": "address"
        },
        {
          "internalType": "uint256",
          "name": "amount",
          "type": "uint256"
        },
        {
          "internalType": "enum Crowdfunding.TxType",
          "name": "txType",
          "type": "uint8"
        },
        {
          "internalType": "uint256",
          "name": "timestamp",
          "type": "uint256"
        }
      ],
      "stateMutability": "view",
      "type": "function"
    },
    {
      "inputs": [
        {
          "internalType": "uint256",
          "name": "_campaignId",
          "type": "uint256"
        }
      ],
      "name": "withdrawFunds",
      "outputs": [],
      "stateMutability": "nonpayable",
      "type": "function"
    }
  ],
  "bytecode": "0x6080604052348015600f57600080fd5b50611e9f8061001f6000396000f3fe6080604052600436106100705760003560e01c806336d4ae711161004e57806336d4ae711461012257806386cdf6041461014b57806392bd38bc14610176578063c5a9308d1461019257610070565b8063141961bc14610075578063155dd5ee146100b95780632bc553f9146100e2575b600080fd5b34801561008157600080fd5b5061009c60048036038101906100979190611031565b6101cf565b6040516100b0989796959493929190611159565b60405180910390f35b3480156100c557600080fd5b506100e060048036038101906100db9190611031565b6103ec565b005b3480156100ee57600080fd5b50610109600480360381019061010491906111ec565b6107b2565b60405161011994939291906112a3565b60405180910390f35b34801561012e57600080fd5b506101496004803603810190610144919061141d565b61082c565b005b34801561015757600080fd5b506101606109c8565b60405161016d91906116cf565b60405180910390f35b610190600480360381019061018b9190611031565b610c6d565b005b34801561019e57600080fd5b506101b960048036038101906101b49190611031565b610e89565b6040516101c69190611804565b60405180910390f35b600081815481106101df57600080fd5b90600052602060002090600802016000915090508060000160009054906101000a900473ffffffffffffffffffffffffffffffffffffffff169080600101805461022890611855565b80601f016020809104026020016040519081016040528092919081815260200182805461025490611855565b80156102a15780601f10610276576101008083540402835291602001916102a1565b820191906000526020600020905b81548152906001019060200180831161028457829003601f168201915b5050505050908060020180546102b690611855565b80601f01602080910402602001604051908101604052809291908181526020018280546102e290611855565b801561032f5780601f106103045761010080835404028352916020019161032f565b820191906000526020600020905b81548152906001019060200180831161031257829003601f168201915b5050505050908060030154908060040154908060050160009054906101000a900460ff169080600601805461036390611855565b80601f016020809104026020016040519081016040528092919081815260200182805461038f90611855565b80156103dc5780601f106103b1576101008083540402835291602001916103dc565b820191906000526020600020905b8154815290600101906020018083116103bf57829003601f168201915b5050505050908060070154905088565b6000805490508110610433576040517f08c379a000000000000000000000000000000000000000000000000000000000815260040161042a906118d2565b60405180910390fd5b6000808281548110610448576104476118f2565b5b906000526020600020906008020190508060000160009054906101000a900473ffffffffffffffffffffffffffffffffffffffff1673ffffffffffffffffffffffffffffffffffffffff163373ffffffffffffffffffffffffffffffffffffffff16146104ea576040517f08c379a00000000000000000000000000000000000000000000000000000000081526004016104e19061196d565b60405180910390fd5b806003015481600401541015610535576040517f08c379a000000000000000000000000000000000000000000000000000000000815260040161052c906119d9565b60405180910390fd5b8060050160009054906101000a900460ff1615610587576040517f08c379a000000000000000000000000000000000000000000000000000000000815260040161057e90611a45565b60405180910390fd5b60008160040154905060018260050160006101000a81548160ff0219169083151502179055508160000160009054906101000a900473ffffffffffffffffffffffffffffffffffffffff1673ffffffffffffffffffffffffffffffffffffffff166108fc829081150290604051600060405180830381858888f19350505050158015610617573d6000803e3d6000fd5b506001600084815260200190815260200160002060405180608001604052808460000160009054906101000a900473ffffffffffffffffffffffffffffffffffffffff1673ffffffffffffffffffffffffffffffffffffffff16815260200183815260200160018081111561068f5761068e61122c565b5b815260200142815250908060018154018082558091505060019003906000526020600020906004020160009091909190915060008201518160000160006101000a81548173ffffffffffffffffffffffffffffffffffffffff021916908373ffffffffffffffffffffffffffffffffffffffff1602179055506020820151816001015560408201518160020160006101000a81548160ff0219169083600181111561073d5761073c61122c565b5b02179055506060820151816003015550507fcf7d23a3cbe4e8b36ff82fd1b05b1b17373dc7804b4ebbd6e2356716ef202372838360000160009054906101000a900473ffffffffffffffffffffffffffffffffffffffff16836040516107a593929190611a65565b60405180910390a1505050565b600160205281600052604060002081815481106107ce57600080fd5b9060005260206000209060040201600091509150508060000160009054906101000a900473ffffffffffffffffffffffffffffffffffffffff16908060010154908060020160009054906101000a900460ff16908060030154905084565b60006040518061010001604052803373ffffffffffffffffffffffffffffffffffffffff1681526020018681526020018581526020018481526020016000815260200160001515815260200183815260200142815250908060018154018082558091505060019003906000526020600020906008020160009091909190915060008201518160000160006101000a81548173ffffffffffffffffffffffffffffffffffffffff021916908373ffffffffffffffffffffffffffffffffffffffff16021790555060208201518160010190816109079190611c48565b50604082015181600201908161091d9190611c48565b50606082015181600301556080820151816004015560a08201518160050160006101000a81548160ff02191690831515021790555060c08201518160060190816109679190611c48565b5060e0820151816007015550507f02fe3fddd43aad14ae5c30d5d694f19ecb065dfde85bb591b91e8af1448724d260016000805490506109a79190611d49565b8584426040516109ba9493929190611d7d565b60405180910390a150505050565b60606000805480602002602001604051908101604052809291908181526020016000905b82821015610c645783829060005260206000209060080201604051806101000160405290816000820160009054906101000a900473ffffffffffffffffffffffffffffffffffffffff1673ffffffffffffffffffffffffffffffffffffffff1673ffffffffffffffffffffffffffffffffffffffff168152602001600182018054610a7690611855565b80601f0160208091040260200160405190810160405280929190818152602001828054610aa290611855565b8015610aef5780601f10610ac457610100808354040283529160200191610aef565b820191906000526020600020905b815481529060010190602001808311610ad257829003601f168201915b50505050508152602001600282018054610b0890611855565b80601f0160208091040260200160405190810160405280929190818152602001828054610b3490611855565b8015610b815780601f10610b5657610100808354040283529160200191610b81565b820191906000526020600020905b815481529060010190602001808311610b6457829003601f168201915b5050505050815260200160038201548152602001600482015481526020016005820160009054906101000a900460ff16151515158152602001600682018054610bc990611855565b80601f0160208091040260200160405190810160405280929190818152602001828054610bf590611855565b8015610c425780601f10610c1757610100808354040283529160200191610c42565b820191906000526020600020905b815481529060010190602001808311610c2557829003601f168201915b50505050508152602001600782015481525050815260200190600101906109ec565b50505050905090565b6000805490508110610cb4576040517f08c379a0000000000000000000000000000000000000000000000000000000008152600401610cab906118d2565b60405180910390fd5b6000808281548110610cc957610cc86118f2565b5b9060005260206000209060080201905060003411610d1c576040517f08c379a0000000000000000000000000000000000000000000000000000000008152600401610d1390611e15565b60405180910390fd5b34816004016000828254610d309190611e35565b925050819055506001600083815260200190815260200160002060405180608001604052803373ffffffffffffffffffffffffffffffffffffffff16815260200134815260200160006001811115610d8b57610d8a61122c565b5b815260200142815250908060018154018082558091505060019003906000526020600020906004020160009091909190915060008201518160000160006101000a81548173ffffffffffffffffffffffffffffffffffffffff021916908373ffffffffffffffffffffffffffffffffffffffff1602179055506020820151816001015560408201518160020160006101000a81548160ff02191690836001811115610e3957610e3861122c565b5b02179055506060820151816003015550507f38c48552690c96ec2872092ac1db6c19fb59f5a8c5b49bbf41ed4886d0ca6926823334604051610e7d93929190611a65565b60405180910390a15050565b60606000805490508210610ed2576040517f08c379a0000000000000000000000000000000000000000000000000000000008152600401610ec9906118d2565b60405180910390fd5b60016000838152602001908152602001600020805480602002602001604051908101604052809291908181526020016000905b82821015610fdc57838290600052602060002090600402016040518060800160405290816000820160009054906101000a900473ffffffffffffffffffffffffffffffffffffffff1673ffffffffffffffffffffffffffffffffffffffff1673ffffffffffffffffffffffffffffffffffffffff168152602001600182015481526020016002820160009054906101000a900460ff166001811115610fad57610fac61122c565b5b6001811115610fbf57610fbe61122c565b5b815260200160038201548152505081526020019060010190610f05565b505050509050919050565b6000604051905090565b600080fd5b600080fd5b6000819050919050565b61100e81610ffb565b811461101957600080fd5b50565b60008135905061102b81611005565b92915050565b60006020828403121561104757611046610ff1565b5b60006110558482850161101c565b91505092915050565b600073ffffffffffffffffffffffffffffffffffffffff82169050919050565b60006110898261105e565b9050919050565b6110998161107e565b82525050565b600081519050919050565b600082825260208201905092915050565b60005b838110156110d95780820151818401526020810190506110be565b60008484015250505050565b6000601f19601f8301169050919050565b60006111018261109f565b61110b81856110aa565b935061111b8185602086016110bb565b611124816110e5565b840191505092915050565b61113881610ffb565b82525050565b60008115159050919050565b6111538161113e565b82525050565b60006101008201905061116f600083018b611090565b8181036020830152611181818a6110f6565b9050818103604083015261119581896110f6565b90506111a4606083018861112f565b6111b1608083018761112f565b6111be60a083018661114a565b81810360c08301526111d081856110f6565b90506111df60e083018461112f565b9998505050505050505050565b6000806040838503121561120357611202610ff1565b5b60006112118582860161101c565b92505060206112228582860161101c565b9150509250929050565b7f4e487b7100000000000000000000000000000000000000000000000000000000600052602160045260246000fd5b6002811061126c5761126b61122c565b5b50565b600081905061127d8261125b565b919050565b600061128d8261126f565b9050919050565b61129d81611282565b82525050565b60006080820190506112b86000830187611090565b6112c5602083018661112f565b6112d26040830185611294565b6112df606083018461112f565b95945050505050565b600080fd5b600080fd5b7f4e487b7100000000000000000000000000000000000000000000000000000000600052604160045260246000fd5b61132a826110e5565b810181811067ffffffffffffffff82111715611349576113486112f2565b5b80604052505050565b600061135c610fe7565b90506113688282611321565b919050565b600067ffffffffffffffff821115611388576113876112f2565b5b611391826110e5565b9050602081019050919050565b82818337600083830152505050565b60006113c06113bb8461136d565b611352565b9050828152602081018484840111156113dc576113db6112ed565b5b6113e784828561139e565b509392505050565b600082601f830112611404576114036112e8565b5b81356114148482602086016113ad565b91505092915050565b6000806000806080858703121561143757611436610ff1565b5b600085013567ffffffffffffffff81111561145557611454610ff6565b5b611461878288016113ef565b945050602085013567ffffffffffffffff81111561148257611481610ff6565b5b61148e878288016113ef565b935050604061149f8782880161101c565b925050606085013567ffffffffffffffff8111156114c0576114bf610ff6565b5b6114cc878288016113ef565b91505092959194509250565b600081519050919050565b600082825260208201905092915050565b6000819050602082019050919050565b61150d8161107e565b82525050565b600082825260208201905092915050565b600061152f8261109f565b6115398185611513565b93506115498185602086016110bb565b611552816110e5565b840191505092915050565b61156681610ffb565b82525050565b6115758161113e565b82525050565b6000610100830160008301516115946000860182611504565b50602083015184820360208601526115ac8282611524565b915050604083015184820360408601526115c68282611524565b91505060608301516115db606086018261155d565b5060808301516115ee608086018261155d565b5060a083015161160160a086018261156c565b5060c083015184820360c08601526116198282611524565b91505060e083015161162e60e086018261155d565b508091505092915050565b6000611645838361157b565b905092915050565b6000602082019050919050565b6000611665826114d8565b61166f81856114e3565b935083602082028501611681856114f4565b8060005b858110156116bd578484038952815161169e8582611639565b94506116a98361164d565b925060208a01995050600181019050611685565b50829750879550505050505092915050565b600060208201905081810360008301526116e9818461165a565b905092915050565b600081519050919050565b600082825260208201905092915050565b6000819050602082019050919050565b61172681611282565b82525050565b6080820160008201516117426000850182611504565b506020820151611755602085018261155d565b506040820151611768604085018261171d565b50606082015161177b606085018261155d565b50505050565b600061178d838361172c565b60808301905092915050565b6000602082019050919050565b60006117b1826116f1565b6117bb81856116fc565b93506117c68361170d565b8060005b838110156117f75781516117de8882611781565b97506117e983611799565b9250506001810190506117ca565b5085935050505092915050565b6000602082019050818103600083015261181e81846117a6565b905092915050565b7f4e487b7100000000000000000000000000000000000000000000000000000000600052602260045260246000fd5b6000600282049050600182168061186d57607f821691505b6020821081036118805761187f611826565b5b50919050565b7f43616d706169676e20646f6573206e6f74206578697374000000000000000000600082015250565b60006118bc6017836110aa565b91506118c782611886565b602082019050919050565b600060208201905081810360008301526118eb816118af565b9050919050565b7f4e487b7100000000000000000000000000000000000000000000000000000000600052603260045260246000fd5b7f4f6e6c79206f776e65722063616e207769746864726177000000000000000000600082015250565b60006119576017836110aa565b915061196282611921565b602082019050919050565b600060208201905081810360008301526119868161194a565b9050919050565b7f46756e64696e6720676f616c206e6f7420726561636865640000000000000000600082015250565b60006119c36018836110aa565b91506119ce8261198d565b602082019050919050565b600060208201905081810360008301526119f2816119b6565b9050919050565b7f43616d706169676e20616c726561647920636f6d706c65746564000000000000600082015250565b6000611a2f601a836110aa565b9150611a3a826119f9565b602082019050919050565b60006020820190508181036000830152611a5e81611a22565b9050919050565b6000606082019050611a7a600083018661112f565b611a876020830185611090565b611a94604083018461112f565b949350505050565b60008190508160005260206000209050919050565b60006020601f8301049050919050565b600082821b905092915050565b600060088302611afe7fffffffffffffffffffffffffffffffffffffffffffffffffffffffffffffffff82611ac1565b611b088683611ac1565b95508019841693508086168417925050509392505050565b6000819050919050565b6000611b45611b40611b3b84610ffb565b611b20565b610ffb565b9050919050565b6000819050919050565b611b5f83611b2a565b611b73611b6b82611b4c565b848454611ace565b825550505050565b600090565b611b88611b7b565b611b93818484611b56565b505050565b5b81811015611bb757611bac600082611b80565b600181019050611b99565b5050565b601f821115611bfc57611bcd81611a9c565b611bd684611ab1565b81016020851015611be5578190505b611bf9611bf185611ab1565b830182611b98565b50505b505050565b600082821c905092915050565b6000611c1f60001984600802611c01565b1980831691505092915050565b6000611c388383611c0e565b9150826002028217905092915050565b611c518261109f565b67ffffffffffffffff811115611c6a57611c696112f2565b5b611c748254611855565b611c7f828285611bbb565b600060209050601f831160018114611cb25760008415611ca0578287015190505b611caa8582611c2c565b865550611d12565b601f198416611cc086611a9c565b60005b82811015611ce857848901518255600182019150602085019450602081019050611cc3565b86831015611d055784890151611d01601f891682611c0e565b8355505b6001600288020188555050505b505050505050565b7f4e487b7100000000000000000000000000000000000000000000000000000000600052601160045260246000fd5b6000611d5482610ffb565b9150611d5f83610ffb565b9250828203905081811115611d7757611d76611d1a565b5b92915050565b6000608082019050611d92600083018761112f565b8181036020830152611da481866110f6565b9050611db3604083018561112f565b611dc0606083018461112f565b95945050505050565b7f4d7573742073656e642045544800000000000000000000000000000000000000600082015250565b6000611dff600d836110aa565b9150611e0a82611dc9565b602082019050919050565b60006020820190508181036000830152611e2e81611df2565b9050919050565b6000611e4082610ffb565b9150611e4b83610ffb565b9250828201905080821115611e6357611e62611d1a565b5b9291505056fea26469706673582212202bccb4c9d16cc097678179981de6e2ea327c4980614d9701b8bf618070c973b264736f6c634300081c0033",
  "linkReferences": {},
  "deployedLinkReferences": {}
}