{
  "_format": "hh-sol-artifact-1",
  "contractName": "Crowdfunding",
  "sourceName": "contracts/Crowdfunding.sol",
  "abi": [
    {
      "anonymous": false,
      "inputs": [
        {
          "indexed": false,
          "internalType": "uint256",
          "name": "campaignId",
          "type": "uint256"
        },
        {
          "indexed": false,
          "internalType": "string",
          "name": "title",
          "type": "string"
        },
        {
          "indexed": false,
          "internalType": "uint256",
          "name": "goal",
          "type": "uint256"
        },
        {
          "indexed": false,
          "internalType": "uint256",
          "name": "createdAt",
          "type": "uint256"
        }
      ],
      "name": "CampaignCreated",
      "type": "event"
    },
    {
      "anonymous": false,
      "inputs": [
        {
          "indexed": false,
          "internalType": "uint256",
          "name": "campaignId",
          "type": "uint256"
        },
        {
          "indexed": false,
          "internalType": "address",
          "name": "funder",
          "type": "address"
        },
        {
          "indexed": false,
          "internalType": "uint256",
          "name": "amount",
          "type": "uint256"
        }
      ],
      "name": "Funded",
      "type": "event"
    },
    {
      "anonymous": false,
      "inputs": [
        {
          "indexed": false,
          "internalType": "uint256",
          "name": "campaignId",
          "type": "uint256"
        },
        {
          "indexed": false,
          "internalType": "address",
          "name": "owner",
          "type": "address"
        },
        {
          "indexed": false,
          "internalType": "uint256",
          "name": "amount",
          "type": "uint256"
        }
      ],
      "name": "Withdrawn",
      "type": "event"
    },
    {
      "inputs": [
        {
          "internalType": "uint256",
          "name": "",
          "type": "uint256"
        }
      ],
      "name": "campaigns",
      "outputs": [
        {
          "internalType": "address",
          "name": "owner",
          "type": "address"
        },
        {
          "internalType": "string",
          "name": "title",
          "type": "string"
        },
        {
          "internalType": "string",
          "name": "description",
          "type": "string"
        },
        {
          "internalType": "uint256",
          "name": "goal",
          "type": "uint256"
        },
        {
          "internalType": "uint256",
          "name": "fundsRaised",
          "type": "uint256"
        },
        {
          "internalType": "bool",
          "name": "completed",
          "type": "bool"
        },
        {
          "internalType": "string",
          "name": "imageUrl",
          "type": "string"
        },
        {
          "internalType": "uint256",
          "name": "createdAt",
          "type": "uint256"
        }
      ],
      "stateMutability": "view",
      "type": "function"
    },
    {
      "inputs": [
        {
          "internalType": "string",
          "name": "_title",
          "type": "string"
        },
        {
          "internalType": "string",
          "name": "_description",
          "type": "string"
        },
        {
          "internalType": "uint256",
          "name": "_goal",
          "type": "uint256"
        },
        {
          "internalType": "string",
          "name": "_imageUrl",
          "type": "string"
        }
      ],
      "name": "createCampaign",
      "outputs": [],
      "stateMutability": "nonpayable",
      "type": "function"
    },
    {
      "inputs": [
        {
          "internalType": "uint256",
          "name": "_campaignId",
          "type": "uint256"
        }
      ],
      "name": "fundCampaign",
      "outputs": [],
      "stateMutability": "payable",
      "type": "function"
    },
    {
      "inputs": [],
      "name": "getAllCampaigns",
      "outputs": [
        {
          "components": [
            {
              "internalType": "address",
              "name": "owner",
              "type": "address"
            },
            {
              "internalType": "string",
              "name": "title",
              "type": "string"
            },
            {
              "internalType": "string",
              "name": "description",
              "type": "string"
            },
            {
              "internalType": "uint256",
              "name": "goal",
              "type": "uint256"
            },
            {
              "internalType": "uint256",
              "name": "fundsRaised",
              "type": "uint256"
            },
            {
              "internalType": "bool",
              "name": "completed",
              "type": "bool"
            },
            {
              "internalType": "string",
              "name": "imageUrl",
              "type": "string"
            },
            {
              "internalType": "uint256",
              "name": "createdAt",
              "type": "uint256"
            }
          ],
          "internalType": "struct Crowdfunding.Campaign[]",
          "name": "",
          "type": "tuple[]"
        }
      ],
      "stateMutability": "view",
      "type": "function"
    },
    {
      "inputs": [
        {
          "internalType": "uint256",
          "name": "_campaignId",
          "type": "uint256"
        }
      ],
      "name": "getTransactionLog",
      "outputs": [
        {
          "components": [
            {
              "internalType": "address",
              "name": "sender",
              "type": "address"
            },
            {
              "internalType": "uint256",
              "name": "amount",
              "type": "uint256"
            },
            {
              "internalType": "enum Crowdfunding.TxType",
              "name": "txType",
              "type": "uint8"
            },
            {
              "internalType": "uint256",
              "name": "timestamp",
              "type": "uint256"
            }
          ],
          "internalType": "struct Crowdfunding.Transaction[]",
          "name": "",
          "type": "tuple[]"
        }
      ],
      "stateMutability": "view",
      "type": "function"
    },
    {
      "inputs": [
        {
          "internalType": "uint256",
          "name": "",
          "type": "uint256"
        },
        {
          "internalType": "uint256",
          "name": "",
          "type": "uint256"
        }
      ],
      "name": "transactionLogs",
      "outputs": [
        {
          "internalType": "address",
          "name": "sender",
          "type": "address"
        },
        {
          "internalType": "uint256",
          "name": "amount",
          "type": "uint256"
        },
        {
          "internalType": "enum Crowdfunding.TxType",
          "name": "txType",
          "type": "uint8"
        },
        {
          "internalType": "uint256",
          "name": "timestamp",
          "type": "uint256"
        }
      ],
      "stateMutability": "view",
      "type": "function"
    },
    {
      "inputs": [
        {
          "internalType": "uint256",
          "name": "_campaignId",
          "type": "uint256"
        }
      ],
      "name": "withdrawFunds",
      "outputs": [],
      "stateMutability": "nonpayable",
      "type": "function"
    }
  ],
  "bytecode": "0x6080604052348015600f57600080fd5b50611f9d8061001f6000396000f3fe6080604052600436106100705760003560e01c806336d4ae711161004e57806336d4ae711461012257806386cdf6041461014b57806392bd38bc14610176578063c5a9308d1461019257610070565b8063141961bc14610075578063155dd5ee146100b95780632bc553f9146100e2575b600080fd5b34801561008157600080fd5b5061009c600480360381019061009791906110c3565b6101cf565b6040516100b09897969594939291906111eb565b60405180910390f35b3480156100c557600080fd5b506100e060048036038101906100db91906110c3565b6103ec565b005b3480156100ee57600080fd5b506101096004803603810190610104919061127e565b6107b2565b6040516101199493929190611335565b60405180910390f35b34801561012e57600080fd5b50610149600480360381019061014491906114af565b61082c565b005b34801561015757600080fd5b506101606109c8565b60405161016d9190611761565b60405180910390f35b610190600480360381019061018b91906110c3565b610c6d565b005b34801561019e57600080fd5b506101b960048036038101906101b491906110c3565b610f1b565b6040516101c69190611896565b60405180910390f35b600081815481106101df57600080fd5b90600052602060002090600802016000915090508060000160009054906101000a900473ffffffffffffffffffffffffffffffffffffffff1690806001018054610228906118e7565b80601f0160208091040260200160405190810160405280929190818152602001828054610254906118e7565b80156102a15780601f10610276576101008083540402835291602001916102a1565b820191906000526020600020905b81548152906001019060200180831161028457829003601f168201915b5050505050908060020180546102b6906118e7565b80601f01602080910402602001604051908101604052809291908181526020018280546102e2906118e7565b801561032f5780601f106103045761010080835404028352916020019161032f565b820191906000526020600020905b81548152906001019060200180831161031257829003601f168201915b5050505050908060030154908060040154908060050160009054906101000a900460ff1690806006018054610363906118e7565b80601f016020809104026020016040519081016040528092919081815260200182805461038f906118e7565b80156103dc5780601f106103b1576101008083540402835291602001916103dc565b820191906000526020600020905b8154815290600101906020018083116103bf57829003601f168201915b5050505050908060070154905088565b6000805490508110610433576040517f08c379a000000000000000000000000000000000000000000000000000000000815260040161042a90611964565b60405180910390fd5b600080828154811061044857610447611984565b5b906000526020600020906008020190508060000160009054906101000a900473ffffffffffffffffffffffffffffffffffffffff1673ffffffffffffffffffffffffffffffffffffffff163373ffffffffffffffffffffffffffffffffffffffff16146104ea576040517f08c379a00000000000000000000000000000000000000000000000000000000081526004016104e1906119ff565b60405180910390fd5b806003015481600401541015610535576040517f08c379a000000000000000000000000000000000000000000000000000000000815260040161052c90611a6b565b60405180910390fd5b8060050160009054906101000a900460ff1615610587576040517f08c379a000000000000000000000000000000000000000000000000000000000815260040161057e90611ad7565b60405180910390fd5b60008160040154905060018260050160006101000a81548160ff0219169083151502179055508160000160009054906101000a900473ffffffffffffffffffffffffffffffffffffffff1673ffffffffffffffffffffffffffffffffffffffff166108fc829081150290604051600060405180830381858888f19350505050158015610617573d6000803e3d6000fd5b506001600084815260200190815260200160002060405180608001604052808460000160009054906101000a900473ffffffffffffffffffffffffffffffffffffffff1673ffffffffffffffffffffffffffffffffffffffff16815260200183815260200160018081111561068f5761068e6112be565b5b815260200142815250908060018154018082558091505060019003906000526020600020906004020160009091909190915060008201518160000160006101000a81548173ffffffffffffffffffffffffffffffffffffffff021916908373ffffffffffffffffffffffffffffffffffffffff1602179055506020820151816001015560408201518160020160006101000a81548160ff0219169083600181111561073d5761073c6112be565b5b02179055506060820151816003015550507fcf7d23a3cbe4e8b36ff82fd1b05b1b17373dc7804b4ebbd6e2356716ef202372838360000160009054906101000a900473ffffffffffffffffffffffffffffffffffffffff16836040516107a593929190611af7565b60405180910390a1505050565b600160205281600052604060002081815481106107ce57600080fd5b9060005260206000209060040201600091509150508060000160009054906101000a900473ffffffffffffffffffffffffffffffffffffffff16908060010154908060020160009054906101000a900460ff16908060030154905084565b60006040518061010001604052803373ffffffffffffffffffffffffffffffffffffffff1681526020018681526020018581526020018481526020016000815260200160001515815260200183815260200142815250908060018154018082558091505060019003906000526020600020906008020160009091909190915060008201518160000160006101000a81548173ffffffffffffffffffffffffffffffffffffffff021916908373ffffffffffffffffffffffffffffffffffffffff16021790555060208201518160010190816109079190611cda565b50604082015181600201908161091d9190611cda565b50606082015181600301556080820151816004015560a08201518160050160006101000a81548160ff02191690831515021790555060c08201518160060190816109679190611cda565b5060e0820151816007015550507f02fe3fddd43aad14ae5c30d5d694f19ecb065dfde85bb591b91e8af1448724d260016000805490506109a79190611ddb565b8584426040516109ba9493929190611e0f565b60405180910390a150505050565b60606000805480602002602001604051908101604052809291908181526020016000905b82821015610c645783829060005260206000209060080201604051806101000160405290816000820160009054906101000a900473ffffffffffffffffffffffffffffffffffffffff1673ffffffffffffffffffffffffffffffffffffffff1673ffffffffffffffffffffffffffffffffffffffff168152602001600182018054610a76906118e7565b80601f0160208091040260200160405190810160405280929190818152602001828054610aa2906118e7565b8015610aef5780601f10610ac457610100808354040283529160200191610aef565b820191906000526020600020905b815481529060010190602001808311610ad257829003601f168201915b50505050508152602001600282018054610b08906118e7565b80601f0160208091040260200160405190810160405280929190818152602001828054610b34906118e7565b8015610b815780601f10610b5657610100808354040283529160200191610b81565b820191906000526020600020905b815481529060010190602001808311610b6457829003601f168201915b5050505050815260200160038201548152602001600482015481526020016005820160009054906101000a900460ff16151515158152602001600682018054610bc9906118e7565b80601f0160208091040260200160405190810160405280929190818152602001828054610bf5906118e7565b8015610c425780601f10610c1757610100808354040283529160200191610c42565b820191906000526020600020905b815481529060010190602001808311610c2557829003601f168201915b50505050508152602001600782015481525050815260200190600101906109ec565b50505050905090565b6000805490508110610cb4576040517f08c379a0000000000000000000000000000000000000000000000000000000008152600401610cab90611964565b60405180910390fd5b6000808281548110610cc957610cc8611984565b5b906000526020600020906008020190508060000160009054906101000a900473ffffffffffffffffffffffffffffffffffffffff1673ffffffffffffffffffffffffffffffffffffffff163373ffffffffffffffffffffffffffffffffffffffff1603610d6b576040517f08c379a0000000000000000000000000000000000000000000000000000000008152600401610d6290611ea7565b60405180910390fd5b60003411610dae576040517f08c379a0000000000000000000000000000000000000000000000000000000008152600401610da590611f13565b60405180910390fd5b34816004016000828254610dc29190611f33565b925050819055506001600083815260200190815260200160002060405180608001604052803373ffffffffffffffffffffffffffffffffffffffff16815260200134815260200160006001811115610e1d57610e1c6112be565b5b815260200142815250908060018154018082558091505060019003906000526020600020906004020160009091909190915060008201518160000160006101000a81548173ffffffffffffffffffffffffffffffffffffffff021916908373ffffffffffffffffffffffffffffffffffffffff1602179055506020820151816001015560408201518160020160006101000a81548160ff02191690836001811115610ecb57610eca6112be565b5b02179055506060820151816003015550507f38c48552690c96ec2872092ac1db6c19fb59f5a8c5b49bbf41ed4886d0ca6926823334604051610f0f93929190611af7565b60405180910390a15050565b60606000805490508210610f64576040517f08c379a0000000000000000000000000000000000000000000000000000000008152600401610f5b90611964565b60405180910390fd5b60016000838152602001908152602001600020805480602002602001604051908101604052809291908181526020016000905b8282101561106e57838290600052602060002090600402016040518060800160405290816000820160009054906101000a900473ffffffffffffffffffffffffffffffffffffffff1673ffffffffffffffffffffffffffffffffffffffff1673ffffffffffffffffffffffffffffffffffffffff168152602001600182015481526020016002820160009054906101000a900460ff16600181111561103f5761103e6112be565b5b6001811115611051576110506112be565b5b815260200160038201548152505081526020019060010190610f97565b505050509050919050565b6000604051905090565b600080fd5b600080fd5b6000819050919050565b6110a08161108d565b81146110ab57600080fd5b50565b6000813590506110bd81611097565b92915050565b6000602082840312156110d9576110d8611083565b5b60006110e7848285016110ae565b91505092915050565b600073ffffffffffffffffffffffffffffffffffffffff82169050919050565b600061111b826110f0565b9050919050565b61112b81611110565b82525050565b600081519050919050565b600082825260208201905092915050565b60005b8381101561116b578082015181840152602081019050611150565b60008484015250505050565b6000601f19601f8301169050919050565b600061119382611131565b61119d818561113c565b93506111ad81856020860161114d565b6111b681611177565b840191505092915050565b6111ca8161108d565b82525050565b60008115159050919050565b6111e5816111d0565b82525050565b600061010082019050611201600083018b611122565b8181036020830152611213818a611188565b905081810360408301526112278189611188565b905061123660608301886111c1565b61124360808301876111c1565b61125060a08301866111dc565b81810360c08301526112628185611188565b905061127160e08301846111c1565b9998505050505050505050565b6000806040838503121561129557611294611083565b5b60006112a3858286016110ae565b92505060206112b4858286016110ae565b9150509250929050565b7f4e487b7100000000000000000000000000000000000000000000000000000000600052602160045260246000fd5b600281106112fe576112fd6112be565b5b50565b600081905061130f826112ed565b919050565b600061131f82611301565b9050919050565b61132f81611314565b82525050565b600060808201905061134a6000830187611122565b61135760208301866111c1565b6113646040830185611326565b61137160608301846111c1565b95945050505050565b600080fd5b600080fd5b7f4e487b7100000000000000000000000000000000000000000000000000000000600052604160045260246000fd5b6113bc82611177565b810181811067ffffffffffffffff821117156113db576113da611384565b5b80604052505050565b60006113ee611079565b90506113fa82826113b3565b919050565b600067ffffffffffffffff82111561141a57611419611384565b5b61142382611177565b9050602081019050919050565b82818337600083830152505050565b600061145261144d846113ff565b6113e4565b90508281526020810184848401111561146e5761146d61137f565b5b611479848285611430565b509392505050565b600082601f8301126114965761149561137a565b5b81356114a684826020860161143f565b91505092915050565b600080600080608085870312156114c9576114c8611083565b5b600085013567ffffffffffffffff8111156114e7576114e6611088565b5b6114f387828801611481565b945050602085013567ffffffffffffffff81111561151457611513611088565b5b61152087828801611481565b9350506040611531878288016110ae565b925050606085013567ffffffffffffffff81111561155257611551611088565b5b61155e87828801611481565b91505092959194509250565b600081519050919050565b600082825260208201905092915050565b6000819050602082019050919050565b61159f81611110565b82525050565b600082825260208201905092915050565b60006115c182611131565b6115cb81856115a5565b93506115db81856020860161114d565b6115e481611177565b840191505092915050565b6115f88161108d565b82525050565b611607816111d0565b82525050565b6000610100830160008301516116266000860182611596565b506020830151848203602086015261163e82826115b6565b9150506040830151848203604086015261165882826115b6565b915050606083015161166d60608601826115ef565b50608083015161168060808601826115ef565b5060a083015161169360a08601826115fe565b5060c083015184820360c08601526116ab82826115b6565b91505060e08301516116c060e08601826115ef565b508091505092915050565b60006116d7838361160d565b905092915050565b6000602082019050919050565b60006116f78261156a565b6117018185611575565b93508360208202850161171385611586565b8060005b8581101561174f578484038952815161173085826116cb565b945061173b836116df565b925060208a01995050600181019050611717565b50829750879550505050505092915050565b6000602082019050818103600083015261177b81846116ec565b905092915050565b600081519050919050565b600082825260208201905092915050565b6000819050602082019050919050565b6117b881611314565b82525050565b6080820160008201516117d46000850182611596565b5060208201516117e760208501826115ef565b5060408201516117fa60408501826117af565b50606082015161180d60608501826115ef565b50505050565b600061181f83836117be565b60808301905092915050565b6000602082019050919050565b600061184382611783565b61184d818561178e565b93506118588361179f565b8060005b838110156118895781516118708882611813565b975061187b8361182b565b92505060018101905061185c565b5085935050505092915050565b600060208201905081810360008301526118b08184611838565b905092915050565b7f4e487b7100000000000000000000000000000000000000000000000000000000600052602260045260246000fd5b600060028204905060018216806118ff57607f821691505b602082108103611912576119116118b8565b5b50919050565b7f43616d706169676e20646f6573206e6f74206578697374000000000000000000600082015250565b600061194e60178361113c565b915061195982611918565b602082019050919050565b6000602082019050818103600083015261197d81611941565b9050919050565b7f4e487b7100000000000000000000000000000000000000000000000000000000600052603260045260246000fd5b7f4f6e6c79206f776e65722063616e207769746864726177000000000000000000600082015250565b60006119e960178361113c565b91506119f4826119b3565b602082019050919050565b60006020820190508181036000830152611a18816119dc565b9050919050565b7f46756e64696e6720676f616c206e6f7420726561636865640000000000000000600082015250565b6000611a5560188361113c565b9150611a6082611a1f565b602082019050919050565b60006020820190508181036000830152611a8481611a48565b9050919050565b7f43616d706169676e20616c726561647920636f6d706c65746564000000000000600082015250565b6000611ac1601a8361113c565b9150611acc82611a8b565b602082019050919050565b60006020820190508181036000830152611af081611ab4565b9050919050565b6000606082019050611b0c60008301866111c1565b611b196020830185611122565b611b2660408301846111c1565b949350505050565b60008190508160005260206000209050919050565b60006020601f8301049050919050565b600082821b905092915050565b600060088302611b907fffffffffffffffffffffffffffffffffffffffffffffffffffffffffffffffff82611b53565b611b9a8683611b53565b95508019841693508086168417925050509392505050565b6000819050919050565b6000611bd7611bd2611bcd8461108d565b611bb2565b61108d565b9050919050565b6000819050919050565b611bf183611bbc565b611c05611bfd82611bde565b848454611b60565b825550505050565b600090565b611c1a611c0d565b611c25818484611be8565b505050565b5b81811015611c4957611c3e600082611c12565b600181019050611c2b565b5050565b601f821115611c8e57611c5f81611b2e565b611c6884611b43565b81016020851015611c77578190505b611c8b611c8385611b43565b830182611c2a565b50505b505050565b600082821c905092915050565b6000611cb160001984600802611c93565b1980831691505092915050565b6000611cca8383611ca0565b9150826002028217905092915050565b611ce382611131565b67ffffffffffffffff811115611cfc57611cfb611384565b5b611d0682546118e7565b611d11828285611c4d565b600060209050601f831160018114611d445760008415611d32578287015190505b611d3c8582611cbe565b865550611da4565b601f198416611d5286611b2e565b60005b82811015611d7a57848901518255600182019150602085019450602081019050611d55565b86831015611d975784890151611d93601f891682611ca0565b8355505b6001600288020188555050505b505050505050565b7f4e487b7100000000000000000000000000000000000000000000000000000000600052601160045260246000fd5b6000611de68261108d565b9150611df18361108d565b9250828203905081811115611e0957611e08611dac565b5b92915050565b6000608082019050611e2460008301876111c1565b8181036020830152611e368186611188565b9050611e4560408301856111c1565b611e5260608301846111c1565b95945050505050565b7f4f776e65722063616e6e6f742066756e64206f776e2063616d706169676e0000600082015250565b6000611e91601e8361113c565b9150611e9c82611e5b565b602082019050919050565b60006020820190508181036000830152611ec081611e84565b9050919050565b7f4d7573742073656e642045544800000000000000000000000000000000000000600082015250565b6000611efd600d8361113c565b9150611f0882611ec7565b602082019050919050565b60006020820190508181036000830152611f2c81611ef0565b9050919050565b6000611f3e8261108d565b9150611f498361108d565b9250828201905080821115611f6157611f60611dac565b5b9291505056fea2646970667358221220ebd8e3496cbf7f07ca5794acbf0bd00fb2c25c604a73c53190ecfa6d6a933e7c64736f6c634300081c0033",
  "linkReferences": {},
  "deployedLinkReferences": {}
}